:020000009F2D32
:100B3E008301E32D04308312920008007F3093006E
:100B4E003C30950408008D309F00183083169F00AE
:100B5E000800603083168F000516051183120511EB
:100B6E00080083129F149F18BA2D1E08F300F4017B
:100B7E00F20083161E08F3007208F400F1007308E9
:100B8E00F00008007108F3007008F2007308720498
:100B9E00031908006E30F400F5010130F402031C55
:100BAE00F503750874040130031DD52DF2020030D3
:100BBE00031CF303F302CD2DB025AA25B825710829
:100BCE00F7007008F60000307702D3300319760272
:100BDE008312031CF42D0515F52D05110230F000BE
:100BEE00F101C925B8257108F7007008F60000302C
:100BFE007702D330031976020130031C102E7702D0
:100C0E0037300319760203180F2E83120515C62EE0
:100C1E00013077023730031976020130031C7E2E25
:100C2E007702C3300319760203187D2EA125A52560
:100C3E00F93083169200013077024B300319760299
:100C4E0003182B2EBE30C12E013077024B30031904
:100C5E0076020130031C3C2E77025F3003197602B8
:100C6E0003183B2EB430C12E013077025F300319CA
:100C7E0076020130031C4C2E770273300319760274
:100C8E0003184B2EAA30C12E013077027330031990
:100C9E0076020130031C5C2E770287300319760230
:100CAE0003185B2EA030C12E013077028730031956
:100CBE0076020130031C6C2E77029B3003197602EC
:100CCE0003186B2E9630C12E013077029B3003191C
:100CDE007602031C7B2E01307702AF3003197602A9
:100CEE0003187B2E8C30C12E8230C12E013077023C
:100CFE00C33003197602031CC42EA125A525F93095
:100D0E008316920002307702133003197602031C09
:100D1E007B2E023077021330031976020230031C49
:100D2E00A12E77026330031976020318A02E7830B5
:100D3E00C12E023077026330031976020230031C93
:100D4E00B12E7702B330031976020318B02E6E302F
:100D5E00C12E02307702B33003197602031CC02E67
:100D6E00033077020330031976020318C02E643065
:100D7E00C12E5A3083129300C62E831205110F30E6
:100D8E00F000F101C92501307702373003197602E0
:100D9E000130031C372F7702C33003197602031874
:100DAE00362F323083169200013077024B30031902
:100DBE0076020318E42E19307A2F013077024B3069
:100DCE00031976020130031CF52E77025F300319EA
:100DDE0076020318F42E17307A2F013077025F3027
:100DEE00031976020130031C052F770273300319A5
:100DFE0076020318042F15307A2F013077027330E4
:100E0E00031976020130031C152F77028730031960
:100E1E0076020318142F14307A2F013077028730A0
:100E2E00031976020130031C252F77029B3003191C
:100E3E0076020318242F13307A2F013077029B305D
:100E4E0003197602031C342F01307702AF300319D9
:100E5E0076020318342F12307A2F11307A2F013088
:100E6E007702C33003197602031C7C2F32308316AF
:100E7E009200023077021330031976020318492FBD
:100E8E0010307A2F023077021330031976020230B7
:100E9E00031C5A2F77026330031976020318592F59
:100EAE000F307A2F02307702633003197602023048
:100EBE00031C6A2F7702B330031976020318692FC9
:100ECE000E307A2F02307702B33003197602031CEC
:100EDE00792F033077020330031976020318792F26
:100EEE000D307A2F0C30831293005230F000F10146
:100EFE00C925B8257108F7007008F6000030770292
:100F0E00D33003197602031CE32F013077023730FA
:100F1E00031976020318E32FA125A525E32F01302F
:100F2E0077023730031976020318EF2F3230920012
:100F3E0000307702EC30031976020318A82F143014
:100F4E00E12F00307702EC30031976020130031CDA
:100F5E00B92F77020530031976020318B82F133014
:100F6E00E12F01307702053003197602031CC82FDA
:100F7E00013077021E30031976020318C82F123083
:100F8E00E12F1130E12F01307702C33003197602C1
:100F9E000318F62F32309200013077027D3003199C
:100FAE0076020318DC2F0930E12F0830E12F3230A2
:100FBE009200073083129300B8257108F70070086D
:100FCE00F60000307702D330031976020318962FFD
:100FDE00013077023730031976020318CA2F013019
:100FEE007702C330031976020318DE2F8312051120
:020FFE00E32FDF
:02400E00343F3D
:00000001FF
