:020000040000FA
:10000000CE28A9008430A0001E30A100972003193B
:100010001210031D1214FC3E031C921003189214BC
:100020008030A0008430A1001E30A400A501121869
:1000300037209218372099202003831692008312CC
:100040002008A2002108A3002808A600A700280F66
:10005000A701B320250893000C309500A41B95162A
:10006000241B15168316051183121215C928382072
:100070000310A40CA10CA00C08000F39A0008316DB
:100080001F088F3930389F0083120310A00DA00D78
:100090001F08C139200401389F000030A100323010
:1000A00067209F149F1852281E08A10083161E085F
:1000B000C928A301A200FF30A207031CA307031C49
:1000C000C9280330A100E33067205B28A101F43E7A
:1000D000A000A109FE30031C7028A00703186D289A
:1000E000A0076400A10F6D280000201877282018B1
:1000F00079280800A20003308028A200063080285A
:10010000A80023082102031D8728220820020430AA
:1001100003180130031902302805031DFF30C928D8
:100120000038031DFF300405031DFF30C928A50159
:10013000A4011030A600210DA40DA50D2208A402D3
:100140002308031C230FA5020318AD282208A407C7
:1001500023080318230FA5070310A00DA10DA60B5C
:100160009B282008C9281030A800A101A001A70CD5
:10017000A60C031CC1282208A00723080318230F7C
:10018000A107A10CA00CA50CA40CA80BB72824084F
:10019000C9288313031383126400080083160F1603
:1001A00083128D309F0083163F30850059309F00A9
:1001B0006530920083120C3095000C1092011215DC
:1001C00001305920A8019030A2004C30A30001302A
:1001D000012083160515831203303D20C20021083B
:1001E000C30003303D20C4002108C50003303D207A
:1001F000C6002108C70042084407BE004308031890
:10020000013E4507BF004608BE0747080318013EE8
:10021000BF073E08A0003F08A1000330A200A301D1
:100220009720C8002108C9004808A0004908A1007B
:10023000A301D2307D20031DE0284808A000490812
:10024000A100A301D2307A20BE004808A0004908CE
:10025000A1000130A30036307D20C0003E0884009C
:1002600040089020C000C100640040084104031908
:100270004829FF30B800B9013808A8009030A20022
:100280004C30A30001300120643059209B29912972
:10029000E830A000FD30A1004808A2004908A300F2
:1002A0009720B8002108B9003808A800A030A200A3
:1002B0000F30A300013001200F3059206830A0001A
:1002C0004230A1004808A2004908A3009720BC00C2
:1002D0002108BD003C08A6003D08A7000530A2008B
:1002E000A301B320BE002508BF0003103F0CB900D6
:1002F0003E0CB8003808A8009030A2004C30A30093
:1003000001300120503059209B293808A0003908BD
:10031000A100A301FF307D20031D9129FF30B8000B
:10032000B9013808A8009030A2004C30A300013079
:1003300001206430592003303D20C2002108C30051
:1003400003303D20C4002108C50003303D20C60015
:100350002108C70042084407BE0043080318013EB5
:100360004507BF004608BE0747080318013EBF0700
:100370003E08A0003F08A1000330A200A30197207F
:10038000C8002108C9009830A0003A30A1004808F0
:10039000A2004908A3009720B8002108B900380836
:1003A000A8009030A2004C30A30001300120480882
:1003B000A0004908A100A3019E307D20031DE22971
:1003C0009B29182A0530592003303D20C2002108FE
:1003D000C30003303D20C4002108C50003303D2088
:1003E000C6002108C70042084407BE00430803189E
:1003F000013E4507BF004608BE0747080318013EF7
:10040000BF073E08A0003F08A1000330A200A301DF
:100410009720C8002108C9004808A0004908A10089
:10042000A3019E307A20031D172AE028182A9B2951
:10043000FF3FFF3FFF3FFF3FFF3FFF3FFF3FFF3FCC
:10044000FF3FFF3FFF3FFF3FFF3FFF3FFF3FFF3FBC
:10045000FF3FFF3FFF3FFF3FFF3FFF3FFF3FFF3FAC
:10046000FF3FFF3FFF3FFF3FFF3FFF3FFF3FFF3F9C
:02400E00D43F9D
:08400000FF3FFF3FFF3FFF3FC0
:02401000FF3F70
:00000001FF
